{
  "_format": "hh3-artifact-1",
  "contractName": "Auracle",
  "sourceName": "contracts/Auracle.sol",
  "abi": [
    {
      "inputs": [],
      "stateMutability": "nonpayable",
      "type": "constructor"
    },
    {
      "inputs": [
        {
          "internalType": "address",
          "name": "sender",
          "type": "address"
        },
        {
          "internalType": "uint256",
          "name": "tokenId",
          "type": "uint256"
        },
        {
          "internalType": "address",
          "name": "owner",
          "type": "address"
        }
      ],
      "name": "ERC721IncorrectOwner",
      "type": "error"
    },
    {
      "inputs": [
        {
          "internalType": "address",
          "name": "operator",
          "type": "address"
        },
        {
          "internalType": "uint256",
          "name": "tokenId",
          "type": "uint256"
        }
      ],
      "name": "ERC721InsufficientApproval",
      "type": "error"
    },
    {
      "inputs": [
        {
          "internalType": "address",
          "name": "approver",
          "type": "address"
        }
      ],
      "name": "ERC721InvalidApprover",
      "type": "error"
    },
    {
      "inputs": [
        {
          "internalType": "address",
          "name": "operator",
          "type": "address"
        }
      ],
      "name": "ERC721InvalidOperator",
      "type": "error"
    },
    {
      "inputs": [
        {
          "internalType": "address",
          "name": "owner",
          "type": "address"
        }
      ],
      "name": "ERC721InvalidOwner",
      "type": "error"
    },
    {
      "inputs": [
        {
          "internalType": "address",
          "name": "receiver",
          "type": "address"
        }
      ],
      "name": "ERC721InvalidReceiver",
      "type": "error"
    },
    {
      "inputs": [
        {
          "internalType": "address",
          "name": "sender",
          "type": "address"
        }
      ],
      "name": "ERC721InvalidSender",
      "type": "error"
    },
    {
      "inputs": [
        {
          "internalType": "uint256",
          "name": "tokenId",
          "type": "uint256"
        }
      ],
      "name": "ERC721NonexistentToken",
      "type": "error"
    },
    {
      "inputs": [
        {
          "internalType": "address",
          "name": "owner",
          "type": "address"
        }
      ],
      "name": "OwnableInvalidOwner",
      "type": "error"
    },
    {
      "inputs": [
        {
          "internalType": "address",
          "name": "account",
          "type": "address"
        }
      ],
      "name": "OwnableUnauthorizedAccount",
      "type": "error"
    },
    {
      "anonymous": false,
      "inputs": [
        {
          "indexed": true,
          "internalType": "address",
          "name": "owner",
          "type": "address"
        },
        {
          "indexed": true,
          "internalType": "address",
          "name": "approved",
          "type": "address"
        },
        {
          "indexed": true,
          "internalType": "uint256",
          "name": "tokenId",
          "type": "uint256"
        }
      ],
      "name": "Approval",
      "type": "event"
    },
    {
      "anonymous": false,
      "inputs": [
        {
          "indexed": true,
          "internalType": "address",
          "name": "owner",
          "type": "address"
        },
        {
          "indexed": true,
          "internalType": "address",
          "name": "operator",
          "type": "address"
        },
        {
          "indexed": false,
          "internalType": "bool",
          "name": "approved",
          "type": "bool"
        }
      ],
      "name": "ApprovalForAll",
      "type": "event"
    },
    {
      "anonymous": false,
      "inputs": [
        {
          "indexed": false,
          "internalType": "uint256",
          "name": "_fromTokenId",
          "type": "uint256"
        },
        {
          "indexed": false,
          "internalType": "uint256",
          "name": "_toTokenId",
          "type": "uint256"
        }
      ],
      "name": "BatchMetadataUpdate",
      "type": "event"
    },
    {
      "anonymous": false,
      "inputs": [
        {
          "indexed": false,
          "internalType": "uint256",
          "name": "tokenId",
          "type": "uint256"
        },
        {
          "indexed": false,
          "internalType": "uint256",
          "name": "pm25Value",
          "type": "uint256"
        }
      ],
      "name": "DataSubmitted",
      "type": "event"
    },
    {
      "anonymous": false,
      "inputs": [
        {
          "indexed": false,
          "internalType": "uint256",
          "name": "_tokenId",
          "type": "uint256"
        }
      ],
      "name": "MetadataUpdate",
      "type": "event"
    },
    {
      "anonymous": false,
      "inputs": [
        {
          "indexed": true,
          "internalType": "address",
          "name": "previousOwner",
          "type": "address"
        },
        {
          "indexed": true,
          "internalType": "address",
          "name": "newOwner",
          "type": "address"
        }
      ],
      "name": "OwnershipTransferred",
      "type": "event"
    },
    {
      "anonymous": false,
      "inputs": [
        {
          "indexed": true,
          "internalType": "address",
          "name": "from",
          "type": "address"
        },
        {
          "indexed": true,
          "internalType": "address",
          "name": "to",
          "type": "address"
        },
        {
          "indexed": true,
          "internalType": "uint256",
          "name": "tokenId",
          "type": "uint256"
        }
      ],
      "name": "Transfer",
      "type": "event"
    },
    {
      "inputs": [
        {
          "internalType": "address",
          "name": "to",
          "type": "address"
        },
        {
          "internalType": "uint256",
          "name": "tokenId",
          "type": "uint256"
        }
      ],
      "name": "approve",
      "outputs": [],
      "stateMutability": "nonpayable",
      "type": "function"
    },
    {
      "inputs": [
        {
          "internalType": "address",
          "name": "owner",
          "type": "address"
        }
      ],
      "name": "balanceOf",
      "outputs": [
        {
          "internalType": "uint256",
          "name": "",
          "type": "uint256"
        }
      ],
      "stateMutability": "view",
      "type": "function"
    },
    {
      "inputs": [
        {
          "internalType": "uint256",
          "name": "tokenId",
          "type": "uint256"
        }
      ],
      "name": "getApproved",
      "outputs": [
        {
          "internalType": "address",
          "name": "",
          "type": "address"
        }
      ],
      "stateMutability": "view",
      "type": "function"
    },
    {
      "inputs": [
        {
          "internalType": "uint256",
          "name": "_tokenId",
          "type": "uint256"
        }
      ],
      "name": "getSensorData",
      "outputs": [
        {
          "components": [
            {
              "internalType": "string",
              "name": "latitude",
              "type": "string"
            },
            {
              "internalType": "string",
              "name": "longitude",
              "type": "string"
            },
            {
              "internalType": "uint256",
              "name": "lastPm25Value",
              "type": "uint256"
            },
            {
              "internalType": "uint256",
              "name": "lastUpdated",
              "type": "uint256"
            },
            {
              "internalType": "uint256",
              "name": "uptimeScore",
              "type": "uint256"
            },
            {
              "internalType": "uint256",
              "name": "reputationScore",
              "type": "uint256"
            }
          ],
          "internalType": "struct Auracle.SensorMetadata",
          "name": "",
          "type": "tuple"
        }
      ],
      "stateMutability": "view",
      "type": "function"
    },
    {
      "inputs": [
        {
          "internalType": "address",
          "name": "owner",
          "type": "address"
        },
        {
          "internalType": "address",
          "name": "operator",
          "type": "address"
        }
      ],
      "name": "isApprovedForAll",
      "outputs": [
        {
          "internalType": "bool",
          "name": "",
          "type": "bool"
        }
      ],
      "stateMutability": "view",
      "type": "function"
    },
    {
      "inputs": [],
      "name": "name",
      "outputs": [
        {
          "internalType": "string",
          "name": "",
          "type": "string"
        }
      ],
      "stateMutability": "view",
      "type": "function"
    },
    {
      "inputs": [],
      "name": "owner",
      "outputs": [
        {
          "internalType": "address",
          "name": "",
          "type": "address"
        }
      ],
      "stateMutability": "view",
      "type": "function"
    },
    {
      "inputs": [
        {
          "internalType": "uint256",
          "name": "tokenId",
          "type": "uint256"
        }
      ],
      "name": "ownerOf",
      "outputs": [
        {
          "internalType": "address",
          "name": "",
          "type": "address"
        }
      ],
      "stateMutability": "view",
      "type": "function"
    },
    {
      "inputs": [
        {
          "internalType": "string",
          "name": "_latitude",
          "type": "string"
        },
        {
          "internalType": "string",
          "name": "_longitude",
          "type": "string"
        }
      ],
      "name": "registerSensor",
      "outputs": [
        {
          "internalType": "uint256",
          "name": "",
          "type": "uint256"
        }
      ],
      "stateMutability": "nonpayable",
      "type": "function"
    },
    {
      "inputs": [],
      "name": "renounceOwnership",
      "outputs": [],
      "stateMutability": "nonpayable",
      "type": "function"
    },
    {
      "inputs": [
        {
          "internalType": "address",
          "name": "from",
          "type": "address"
        },
        {
          "internalType": "address",
          "name": "to",
          "type": "address"
        },
        {
          "internalType": "uint256",
          "name": "tokenId",
          "type": "uint256"
        }
      ],
      "name": "safeTransferFrom",
      "outputs": [],
      "stateMutability": "nonpayable",
      "type": "function"
    },
    {
      "inputs": [
        {
          "internalType": "address",
          "name": "from",
          "type": "address"
        },
        {
          "internalType": "address",
          "name": "to",
          "type": "address"
        },
        {
          "internalType": "uint256",
          "name": "tokenId",
          "type": "uint256"
        },
        {
          "internalType": "bytes",
          "name": "data",
          "type": "bytes"
        }
      ],
      "name": "safeTransferFrom",
      "outputs": [],
      "stateMutability": "nonpayable",
      "type": "function"
    },
    {
      "inputs": [
        {
          "internalType": "uint256",
          "name": "",
          "type": "uint256"
        }
      ],
      "name": "sensorData",
      "outputs": [
        {
          "internalType": "string",
          "name": "latitude",
          "type": "string"
        },
        {
          "internalType": "string",
          "name": "longitude",
          "type": "string"
        },
        {
          "internalType": "uint256",
          "name": "lastPm25Value",
          "type": "uint256"
        },
        {
          "internalType": "uint256",
          "name": "lastUpdated",
          "type": "uint256"
        },
        {
          "internalType": "uint256",
          "name": "uptimeScore",
          "type": "uint256"
        },
        {
          "internalType": "uint256",
          "name": "reputationScore",
          "type": "uint256"
        }
      ],
      "stateMutability": "view",
      "type": "function"
    },
    {
      "inputs": [
        {
          "internalType": "address",
          "name": "operator",
          "type": "address"
        },
        {
          "internalType": "bool",
          "name": "approved",
          "type": "bool"
        }
      ],
      "name": "setApprovalForAll",
      "outputs": [],
      "stateMutability": "nonpayable",
      "type": "function"
    },
    {
      "inputs": [
        {
          "internalType": "string",
          "name": "newBaseURI",
          "type": "string"
        }
      ],
      "name": "setBaseURI",
      "outputs": [],
      "stateMutability": "nonpayable",
      "type": "function"
    },
    {
      "inputs": [
        {
          "internalType": "uint256",
          "name": "_tokenId",
          "type": "uint256"
        },
        {
          "internalType": "uint256",
          "name": "_pm25Value",
          "type": "uint256"
        }
      ],
      "name": "submitData",
      "outputs": [],
      "stateMutability": "nonpayable",
      "type": "function"
    },
    {
      "inputs": [
        {
          "internalType": "bytes4",
          "name": "interfaceId",
          "type": "bytes4"
        }
      ],
      "name": "supportsInterface",
      "outputs": [
        {
          "internalType": "bool",
          "name": "",
          "type": "bool"
        }
      ],
      "stateMutability": "view",
      "type": "function"
    },
    {
      "inputs": [],
      "name": "symbol",
      "outputs": [
        {
          "internalType": "string",
          "name": "",
          "type": "string"
        }
      ],
      "stateMutability": "view",
      "type": "function"
    },
    {
      "inputs": [
        {
          "internalType": "uint256",
          "name": "tokenId",
          "type": "uint256"
        }
      ],
      "name": "tokenURI",
      "outputs": [
        {
          "internalType": "string",
          "name": "",
          "type": "string"
        }
      ],
      "stateMutability": "view",
      "type": "function"
    },
    {
      "inputs": [],
      "name": "totalSupply",
      "outputs": [
        {
          "internalType": "uint256",
          "name": "",
          "type": "uint256"
        }
      ],
      "stateMutability": "view",
      "type": "function"
    },
    {
      "inputs": [
        {
          "internalType": "address",
          "name": "from",
          "type": "address"
        },
        {
          "internalType": "address",
          "name": "to",
          "type": "address"
        },
        {
          "internalType": "uint256",
          "name": "tokenId",
          "type": "uint256"
        }
      ],
      "name": "transferFrom",
      "outputs": [],
      "stateMutability": "nonpayable",
      "type": "function"
    },
    {
      "inputs": [
        {
          "internalType": "address",
          "name": "newOwner",
          "type": "address"
        }
      ],
      "name": "transferOwnership",
      "outputs": [],
      "stateMutability": "nonpayable",
      "type": "function"
    }
  ],
  "bytecode": "0x608060405234801561000f575f5ffd5b50336040518060400160405280600e81526020017f41757261636c652053656e736f720000000000000000000000000000000000008152506040518060400160405280600481526020017f4155524100000000000000000000000000000000000000000000000000000000815250815f908161008b9190610423565b50806001908161009b9190610423565b5050505f73ffffffffffffffffffffffffffffffffffffffff168173ffffffffffffffffffffffffffffffffffffffff160361010e575f6040517f1e4fbdf70000000000000000000000000000000000000000000000000000000081526004016101059190610531565b60405180910390fd5b61011d8161012360201b60201c565b5061054a565b5f60075f9054906101000a900473ffffffffffffffffffffffffffffffffffffffff1690508160075f6101000a81548173ffffffffffffffffffffffffffffffffffffffff021916908373ffffffffffffffffffffffffffffffffffffffff1602179055508173ffffffffffffffffffffffffffffffffffffffff168173ffffffffffffffffffffffffffffffffffffffff167f8be0079c531659141344cd1fd0a4f28419497f9722a3daafe3b4186f6b6457e060405160405180910390a35050565b5f81519050919050565b7f4e487b71000000000000000000000000000000000000000000000000000000005f52604160045260245ffd5b7f4e487b71000000000000000000000000000000000000000000000000000000005f52602260045260245ffd5b5f600282049050600182168061026157607f821691505b6020821081036102745761027361021d565b5b50919050565b5f819050815f5260205f209050919050565b5f6020601f8301049050919050565b5f82821b905092915050565b5f600883026102d67fffffffffffffffffffffffffffffffffffffffffffffffffffffffffffffffff8261029b565b6102e0868361029b565b95508019841693508086168417925050509392505050565b5f819050919050565b5f819050919050565b5f61032461031f61031a846102f8565b610301565b6102f8565b9050919050565b5f819050919050565b61033d8361030a565b6103516103498261032b565b8484546102a7565b825550505050565b5f5f905090565b610368610359565b610373818484610334565b505050565b5b818110156103965761038b5f82610360565b600181019050610379565b5050565b601f8211156103db576103ac8161027a565b6103b58461028c565b810160208510156103c4578190505b6103d86103d08561028c565b830182610378565b50505b505050565b5f82821c905092915050565b5f6103fb5f19846008026103e0565b1980831691505092915050565b5f61041383836103ec565b9150826002028217905092915050565b61042c826101e6565b67ffffffffffffffff811115610445576104446101f0565b5b61044f825461024a565b61045a82828561039a565b5f60209050601f83116001811461048b575f8415610479578287015190505b6104838582610408565b8655506104ea565b601f1984166104998661027a565b5f5b828110156104c05784890151825560018201915060208501945060208101905061049b565b868310156104dd57848901516104d9601f8916826103ec565b8355505b6001600288020188555050505b505050505050565b5f73ffffffffffffffffffffffffffffffffffffffff82169050919050565b5f61051b826104f2565b9050919050565b61052b81610511565b82525050565b5f6020820190506105445f830184610522565b92915050565b612e06806105575f395ff3fe608060405234801561000f575f5ffd5b5060043610610140575f3560e01c8063822b2c4c116100b6578063b88d4fde1161007a578063b88d4fde14610363578063c87b56dd1461037f578063e985e9c5146103af578063ed044aa3146103df578063f2fde38b1461040f578063fc39c02c1461042b57610140565b8063822b2c4c146102ba5780638da5cb5b146102d657806395d89b41146102f4578063a22cb46514610312578063ab562a1d1461032e57610140565b806323b872dd1161010857806323b872dd146101fc57806342842e0e1461021857806355f804b3146102345780636352211e1461025057806370a0823114610280578063715018a6146102b057610140565b806301ffc9a71461014457806306fdde0314610174578063081812fc14610192578063095ea7b3146101c257806318160ddd146101de575b5f5ffd5b61015e6004803603810190610159919061200f565b61045b565b60405161016b9190612054565b60405180910390f35b61017c61046c565b60405161018991906120dd565b60405180910390f35b6101ac60048036038101906101a79190612130565b6104fb565b6040516101b9919061219a565b60405180910390f35b6101dc60048036038101906101d791906121dd565b610516565b005b6101e661052c565b6040516101f3919061222a565b60405180910390f35b61021660048036038101906102119190612243565b610535565b005b610232600480360381019061022d9190612243565b610634565b005b61024e600480360381019061024991906123bf565b610653565b005b61026a60048036038101906102659190612130565b61066e565b604051610277919061219a565b60405180910390f35b61029a60048036038101906102959190612406565b61067f565b6040516102a7919061222a565b60405180910390f35b6102b8610735565b005b6102d460048036038101906102cf9190612431565b610748565b005b6102de61082d565b6040516102eb919061219a565b60405180910390f35b6102fc610855565b60405161030991906120dd565b60405180910390f35b61032c60048036038101906103279190612499565b6108e5565b005b61034860048036038101906103439190612130565b6108fb565b60405161035a969594939291906124d7565b60405180910390f35b61037d600480360381019061037891906125e2565b610a3f565b005b61039960048036038101906103949190612130565b610a64565b6040516103a691906120dd565b60405180910390f35b6103c960048036038101906103c49190612662565b610a76565b6040516103d69190612054565b60405180910390f35b6103f960048036038101906103f49190612130565b610b04565b6040516104069190612784565b60405180910390f35b61042960048036038101906104249190612406565b610c76565b005b610445600480360381019061044091906127a4565b610cfa565b604051610452919061222a565b60405180910390f35b5f61046582610dc1565b9050919050565b60605f805461047a90612847565b80601f01602080910402602001604051908101604052809291908181526020018280546104a690612847565b80156104f15780601f106104c8576101008083540402835291602001916104f1565b820191905f5260205f20905b8154815290600101906020018083116104d457829003601f168201915b5050505050905090565b5f61050582610e21565b5061050f82610ea7565b9050919050565b6105288282610523610ee0565b610ee7565b5050565b5f600854905090565b5f73ffffffffffffffffffffffffffffffffffffffff168273ffffffffffffffffffffffffffffffffffffffff16036105a5575f6040517f64a0ae9200000000000000000000000000000000000000000000000000000000815260040161059c919061219a565b60405180910390fd5b5f6105b883836105b3610ee0565b610ef9565b90508373ffffffffffffffffffffffffffffffffffffffff168173ffffffffffffffffffffffffffffffffffffffff161461062e578382826040517f64283d7b00000000000000000000000000000000000000000000000000000000815260040161062593929190612877565b60405180910390fd5b50505050565b61064e83838360405180602001604052805f815250610a3f565b505050565b61065b611104565b806009908161066a9190612a4c565b5050565b5f61067882610e21565b9050919050565b5f5f73ffffffffffffffffffffffffffffffffffffffff168273ffffffffffffffffffffffffffffffffffffffff16036106f0575f6040517f89c62b640000000000000000000000000000000000000000000000000000000081526004016106e7919061219a565b60405180910390fd5b60035f8373ffffffffffffffffffffffffffffffffffffffff1673ffffffffffffffffffffffffffffffffffffffff1681526020019081526020015f20549050919050565b61073d611104565b6107465f61118b565b565b3373ffffffffffffffffffffffffffffffffffffffff166107688361124e565b73ffffffffffffffffffffffffffffffffffffffff16146107be576040517f08c379a00000000000000000000000000000000000000000000000000000000081526004016107b590612b8b565b60405180910390fd5b80600a5f8481526020019081526020015f206002018190555042600a5f8481526020019081526020015f20600301819055507f8e02165c32e3fe774a93d7f62c2ba5fb32479a920c28e338092644bfbafd60938282604051610821929190612ba9565b60405180910390a15050565b5f60075f9054906101000a900473ffffffffffffffffffffffffffffffffffffffff16905090565b60606001805461086490612847565b80601f016020809104026020016040519081016040528092919081815260200182805461089090612847565b80156108db5780601f106108b2576101008083540402835291602001916108db565b820191905f5260205f20905b8154815290600101906020018083116108be57829003601f168201915b5050505050905090565b6108f76108f0610ee0565b8383611287565b5050565b600a602052805f5260405f205f91509050805f01805461091a90612847565b80601f016020809104026020016040519081016040528092919081815260200182805461094690612847565b80156109915780601f1061096857610100808354040283529160200191610991565b820191905f5260205f20905b81548152906001019060200180831161097457829003601f168201915b5050505050908060010180546109a690612847565b80601f01602080910402602001604051908101604052809291908181526020018280546109d290612847565b8015610a1d5780601f106109f457610100808354040283529160200191610a1d565b820191905f5260205f20905b815481529060010190602001808311610a0057829003601f168201915b5050505050908060020154908060030154908060040154908060050154905086565b610a4a848484610535565b610a5e610a55610ee0565b858585856113f0565b50505050565b6060610a6f8261159c565b9050919050565b5f60055f8473ffffffffffffffffffffffffffffffffffffffff1673ffffffffffffffffffffffffffffffffffffffff1681526020019081526020015f205f8373ffffffffffffffffffffffffffffffffffffffff1673ffffffffffffffffffffffffffffffffffffffff1681526020019081526020015f205f9054906101000a900460ff16905092915050565b610b0c611f77565b600a5f8381526020019081526020015f206040518060c00160405290815f82018054610b3790612847565b80601f0160208091040260200160405190810160405280929190818152602001828054610b6390612847565b8015610bae5780601f10610b8557610100808354040283529160200191610bae565b820191905f5260205f20905b815481529060010190602001808311610b9157829003601f168201915b50505050508152602001600182018054610bc790612847565b80601f0160208091040260200160405190810160405280929190818152602001828054610bf390612847565b8015610c3e5780601f10610c1557610100808354040283529160200191610c3e565b820191905f5260205f20905b815481529060010190602001808311610c2157829003601f168201915b505050505081526020016002820154815260200160038201548152602001600482015481526020016005820154815250509050919050565b610c7e611104565b5f73ffffffffffffffffffffffffffffffffffffffff168173ffffffffffffffffffffffffffffffffffffffff1603610cee575f6040517f1e4fbdf7000000000000000000000000000000000000000000000000000000008152600401610ce5919061219a565b60405180910390fd5b610cf78161118b565b50565b5f5f600854905060085f815480929190610d1390612bfd565b9190505550610d2233826116a7565b6040518060c001604052808581526020018481526020015f8152602001428152602001606481526020016064815250600a5f8381526020019081526020015f205f820151815f019081610d759190612a4c565b506020820151816001019081610d8b9190612a4c565b5060408201518160020155606082015181600301556080820151816004015560a082015181600501559050508091505092915050565b5f634906490660e01b7bffffffffffffffffffffffffffffffffffffffffffffffffffffffff1916827bffffffffffffffffffffffffffffffffffffffffffffffffffffffff19161480610e1a5750610e19826116c4565b5b9050919050565b5f5f610e2c8361124e565b90505f73ffffffffffffffffffffffffffffffffffffffff168173ffffffffffffffffffffffffffffffffffffffff1603610e9e57826040517f7e273289000000000000000000000000000000000000000000000000000000008152600401610e95919061222a565b60405180910390fd5b80915050919050565b5f60045f8381526020019081526020015f205f9054906101000a900473ffffffffffffffffffffffffffffffffffffffff169050919050565b5f33905090565b610ef483838360016117a5565b505050565b5f5f610f048461124e565b90505f73ffffffffffffffffffffffffffffffffffffffff168373ffffffffffffffffffffffffffffffffffffffff1614610f4557610f44818486611964565b5b5f73ffffffffffffffffffffffffffffffffffffffff168173ffffffffffffffffffffffffffffffffffffffff1614610fd057610f845f855f5f6117a5565b600160035f8373ffffffffffffffffffffffffffffffffffffffff1673ffffffffffffffffffffffffffffffffffffffff1681526020019081526020015f205f82825403925050819055505b5f73ffffffffffffffffffffffffffffffffffffffff168573ffffffffffffffffffffffffffffffffffffffff161461104f57600160035f8773ffffffffffffffffffffffffffffffffffffffff1673ffffffffffffffffffffffffffffffffffffffff1681526020019081526020015f205f82825401925050819055505b8460025f8681526020019081526020015f205f6101000a81548173ffffffffffffffffffffffffffffffffffffffff021916908373ffffffffffffffffffffffffffffffffffffffff160217905550838573ffffffffffffffffffffffffffffffffffffffff168273ffffffffffffffffffffffffffffffffffffffff167fddf252ad1be2c89b69c2b068fc378daa952ba7f163c4a11628f55a4df523b3ef60405160405180910390a4809150509392505050565b61110c610ee0565b73ffffffffffffffffffffffffffffffffffffffff1661112a61082d565b73ffffffffffffffffffffffffffffffffffffffff16146111895761114d610ee0565b6040517f118cdaa7000000000000000000000000000000000000000000000000000000008152600401611180919061219a565b60405180910390fd5b565b5f60075f9054906101000a900473ffffffffffffffffffffffffffffffffffffffff1690508160075f6101000a81548173ffffffffffffffffffffffffffffffffffffffff021916908373ffffffffffffffffffffffffffffffffffffffff1602179055508173ffffffffffffffffffffffffffffffffffffffff168173ffffffffffffffffffffffffffffffffffffffff167f8be0079c531659141344cd1fd0a4f28419497f9722a3daafe3b4186f6b6457e060405160405180910390a35050565b5f60025f8381526020019081526020015f205f9054906101000a900473ffffffffffffffffffffffffffffffffffffffff169050919050565b5f73ffffffffffffffffffffffffffffffffffffffff168273ffffffffffffffffffffffffffffffffffffffff16036112f757816040517f5b08ba180000000000000000000000000000000000000000000000000000000081526004016112ee919061219a565b60405180910390fd5b8060055f8573ffffffffffffffffffffffffffffffffffffffff1673ffffffffffffffffffffffffffffffffffffffff1681526020019081526020015f205f8473ffffffffffffffffffffffffffffffffffffffff1673ffffffffffffffffffffffffffffffffffffffff1681526020019081526020015f205f6101000a81548160ff0219169083151502179055508173ffffffffffffffffffffffffffffffffffffffff168373ffffffffffffffffffffffffffffffffffffffff167f17307eab39ab6107e8899845ad3d59bd9653f200f220920489ca2b5937696c31836040516113e39190612054565b60405180910390a3505050565b5f8373ffffffffffffffffffffffffffffffffffffffff163b1115611595578273ffffffffffffffffffffffffffffffffffffffff1663150b7a02868685856040518563ffffffff1660e01b815260040161144e9493929190612c96565b6020604051808303815f875af192505050801561148957506040513d601f19601f820116820180604052508101906114869190612cf4565b60015b61150a573d805f81146114b7576040519150601f19603f3d011682016040523d82523d5f602084013e6114bc565b606091505b505f81510361150257836040517f64a0ae920000000000000000000000000000000000000000000000000000000081526004016114f9919061219a565b60405180910390fd5b805160208201fd5b63150b7a0260e01b7bffffffffffffffffffffffffffffffffffffffffffffffffffffffff1916817bffffffffffffffffffffffffffffffffffffffffffffffffffffffff19161461159357836040517f64a0ae9200000000000000000000000000000000000000000000000000000000815260040161158a919061219a565b60405180910390fd5b505b5050505050565b60606115a782610e21565b505f60065f8481526020019081526020015f2080546115c590612847565b80601f01602080910402602001604051908101604052809291908181526020018280546115f190612847565b801561163c5780601f106116135761010080835404028352916020019161163c565b820191905f5260205f20905b81548152906001019060200180831161161f57829003601f168201915b505050505090505f61164c611a27565b90505f8151036116605781925050506116a2565b5f8251111561169457808260405160200161167c929190612d59565b604051602081830303815290604052925050506116a2565b61169d84611ab7565b925050505b919050565b6116c0828260405180602001604052805f815250611b1d565b5050565b5f7f80ac58cd000000000000000000000000000000000000000000000000000000007bffffffffffffffffffffffffffffffffffffffffffffffffffffffff1916827bffffffffffffffffffffffffffffffffffffffffffffffffffffffff1916148061178e57507f5b5e139f000000000000000000000000000000000000000000000000000000007bffffffffffffffffffffffffffffffffffffffffffffffffffffffff1916827bffffffffffffffffffffffffffffffffffffffffffffffffffffffff1916145b8061179e575061179d82611b40565b5b9050919050565b80806117dd57505f73ffffffffffffffffffffffffffffffffffffffff168273ffffffffffffffffffffffffffffffffffffffff1614155b1561190f575f6117ec84610e21565b90505f73ffffffffffffffffffffffffffffffffffffffff168373ffffffffffffffffffffffffffffffffffffffff161415801561185657508273ffffffffffffffffffffffffffffffffffffffff168173ffffffffffffffffffffffffffffffffffffffff1614155b801561186957506118678184610a76565b155b156118ab57826040517fa9fbf51f0000000000000000000000000000000000000000000000000000000081526004016118a2919061219a565b60405180910390fd5b811561190d57838573ffffffffffffffffffffffffffffffffffffffff168273ffffffffffffffffffffffffffffffffffffffff167f8c5be1e5ebec7d5bd14f71427d1e84f3dd0314c0f7b2291e5b200ac8c7c3b92560405160405180910390a45b505b8360045f8581526020019081526020015f205f6101000a81548173ffffffffffffffffffffffffffffffffffffffff021916908373ffffffffffffffffffffffffffffffffffffffff16021790555050505050565b61196f838383611ba9565b611a22575f73ffffffffffffffffffffffffffffffffffffffff168373ffffffffffffffffffffffffffffffffffffffff16036119e357806040517f7e2732890000000000000000000000000000000000000000000000000000000081526004016119da919061222a565b60405180910390fd5b81816040517f177e802f000000000000000000000000000000000000000000000000000000008152600401611a19929190612d7c565b60405180910390fd5b505050565b606060098054611a3690612847565b80601f0160208091040260200160405190810160405280929190818152602001828054611a6290612847565b8015611aad5780601f10611a8457610100808354040283529160200191611aad565b820191905f5260205f20905b815481529060010190602001808311611a9057829003601f168201915b5050505050905090565b6060611ac282610e21565b505f611acc611a27565b90505f815111611aea5760405180602001604052805f815250611b15565b80611af484611c69565b604051602001611b05929190612d59565b6040516020818303038152906040525b915050919050565b611b278383611d33565b611b3b611b32610ee0565b5f8585856113f0565b505050565b5f7f01ffc9a7000000000000000000000000000000000000000000000000000000007bffffffffffffffffffffffffffffffffffffffffffffffffffffffff1916827bffffffffffffffffffffffffffffffffffffffffffffffffffffffff1916149050919050565b5f5f73ffffffffffffffffffffffffffffffffffffffff168373ffffffffffffffffffffffffffffffffffffffff1614158015611c6057508273ffffffffffffffffffffffffffffffffffffffff168473ffffffffffffffffffffffffffffffffffffffff161480611c215750611c208484610a76565b5b80611c5f57508273ffffffffffffffffffffffffffffffffffffffff16611c4783610ea7565b73ffffffffffffffffffffffffffffffffffffffff16145b5b90509392505050565b60605f6001611c7784611e26565b0190505f8167ffffffffffffffff811115611c9557611c9461229b565b5b6040519080825280601f01601f191660200182016040528015611cc75781602001600182028036833780820191505090505b5090505f82602083010190505b600115611d28578080600190039150507f3031323334353637383961626364656600000000000000000000000000000000600a86061a8153600a8581611d1d57611d1c612da3565b5b0494505f8503611cd4575b819350505050919050565b5f73ffffffffffffffffffffffffffffffffffffffff168273ffffffffffffffffffffffffffffffffffffffff1603611da3575f6040517f64a0ae92000000000000000000000000000000000000000000000000000000008152600401611d9a919061219a565b60405180910390fd5b5f611daf83835f610ef9565b90505f73ffffffffffffffffffffffffffffffffffffffff168173ffffffffffffffffffffffffffffffffffffffff1614611e21575f6040517f73c6ac6e000000000000000000000000000000000000000000000000000000008152600401611e18919061219a565b60405180910390fd5b505050565b5f5f5f90507a184f03e93ff9f4daa797ed6e38ed64bf6a1f0100000000000000008310611e82577a184f03e93ff9f4daa797ed6e38ed64bf6a1f0100000000000000008381611e7857611e77612da3565b5b0492506040810190505b6d04ee2d6d415b85acef81000000008310611ebf576d04ee2d6d415b85acef81000000008381611eb557611eb4612da3565b5b0492506020810190505b662386f26fc100008310611eee57662386f26fc100008381611ee457611ee3612da3565b5b0492506010810190505b6305f5e1008310611f17576305f5e1008381611f0d57611f0c612da3565b5b0492506008810190505b6127108310611f3c576127108381611f3257611f31612da3565b5b0492506004810190505b60648310611f5f5760648381611f5557611f54612da3565b5b0492506002810190505b600a8310611f6e576001810190505b80915050919050565b6040518060c0016040528060608152602001606081526020015f81526020015f81526020015f81526020015f81525090565b5f604051905090565b5f5ffd5b5f5ffd5b5f7fffffffff0000000000000000000000000000000000000000000000000000000082169050919050565b611fee81611fba565b8114611ff8575f5ffd5b50565b5f8135905061200981611fe5565b92915050565b5f6020828403121561202457612023611fb2565b5b5f61203184828501611ffb565b91505092915050565b5f8115159050919050565b61204e8161203a565b82525050565b5f6020820190506120675f830184612045565b92915050565b5f81519050919050565b5f82825260208201905092915050565b8281835e5f83830152505050565b5f601f19601f8301169050919050565b5f6120af8261206d565b6120b98185612077565b93506120c9818560208601612087565b6120d281612095565b840191505092915050565b5f6020820190508181035f8301526120f581846120a5565b905092915050565b5f819050919050565b61210f816120fd565b8114612119575f5ffd5b50565b5f8135905061212a81612106565b92915050565b5f6020828403121561214557612144611fb2565b5b5f6121528482850161211c565b91505092915050565b5f73ffffffffffffffffffffffffffffffffffffffff82169050919050565b5f6121848261215b565b9050919050565b6121948161217a565b82525050565b5f6020820190506121ad5f83018461218b565b92915050565b6121bc8161217a565b81146121c6575f5ffd5b50565b5f813590506121d7816121b3565b92915050565b5f5f604083850312156121f3576121f2611fb2565b5b5f612200858286016121c9565b92505060206122118582860161211c565b9150509250929050565b612224816120fd565b82525050565b5f60208201905061223d5f83018461221b565b92915050565b5f5f5f6060848603121561225a57612259611fb2565b5b5f612267868287016121c9565b9350506020612278868287016121c9565b92505060406122898682870161211c565b9150509250925092565b5f5ffd5b5f5ffd5b7f4e487b71000000000000000000000000000000000000000000000000000000005f52604160045260245ffd5b6122d182612095565b810181811067ffffffffffffffff821117156122f0576122ef61229b565b5b80604052505050565b5f612302611fa9565b905061230e82826122c8565b919050565b5f67ffffffffffffffff82111561232d5761232c61229b565b5b61233682612095565b9050602081019050919050565b828183375f83830152505050565b5f61236361235e84612313565b6122f9565b90508281526020810184848401111561237f5761237e612297565b5b61238a848285612343565b509392505050565b5f82601f8301126123a6576123a5612293565b5b81356123b6848260208601612351565b91505092915050565b5f602082840312156123d4576123d3611fb2565b5b5f82013567ffffffffffffffff8111156123f1576123f0611fb6565b5b6123fd84828501612392565b91505092915050565b5f6020828403121561241b5761241a611fb2565b5b5f612428848285016121c9565b91505092915050565b5f5f6040838503121561244757612446611fb2565b5b5f6124548582860161211c565b92505060206124658582860161211c565b9150509250929050565b6124788161203a565b8114612482575f5ffd5b50565b5f813590506124938161246f565b92915050565b5f5f604083850312156124af576124ae611fb2565b5b5f6124bc858286016121c9565b92505060206124cd85828601612485565b9150509250929050565b5f60c0820190508181035f8301526124ef81896120a5565b9050818103602083015261250381886120a5565b9050612512604083018761221b565b61251f606083018661221b565b61252c608083018561221b565b61253960a083018461221b565b979650505050505050565b5f67ffffffffffffffff82111561255e5761255d61229b565b5b61256782612095565b9050602081019050919050565b5f61258661258184612544565b6122f9565b9050828152602081018484840111156125a2576125a1612297565b5b6125ad848285612343565b509392505050565b5f82601f8301126125c9576125c8612293565b5b81356125d9848260208601612574565b91505092915050565b5f5f5f5f608085870312156125fa576125f9611fb2565b5b5f612607878288016121c9565b9450506020612618878288016121c9565b93505060406126298782880161211c565b925050606085013567ffffffffffffffff81111561264a57612649611fb6565b5b612656878288016125b5565b91505092959194509250565b5f5f6040838503121561267857612677611fb2565b5b5f612685858286016121c9565b9250506020612696858286016121c9565b9150509250929050565b5f82825260208201905092915050565b5f6126ba8261206d565b6126c481856126a0565b93506126d4818560208601612087565b6126dd81612095565b840191505092915050565b6126f1816120fd565b82525050565b5f60c083015f8301518482035f86015261271182826126b0565b9150506020830151848203602086015261272b82826126b0565b915050604083015161274060408601826126e8565b50606083015161275360608601826126e8565b50608083015161276660808601826126e8565b5060a083015161277960a08601826126e8565b508091505092915050565b5f6020820190508181035f83015261279c81846126f7565b905092915050565b5f5f604083850312156127ba576127b9611fb2565b5b5f83013567ffffffffffffffff8111156127d7576127d6611fb6565b5b6127e385828601612392565b925050602083013567ffffffffffffffff81111561280457612803611fb6565b5b61281085828601612392565b9150509250929050565b7f4e487b71000000000000000000000000000000000000000000000000000000005f52602260045260245ffd5b5f600282049050600182168061285e57607f821691505b6020821081036128715761287061281a565b5b50919050565b5f60608201905061288a5f83018661218b565b612897602083018561221b565b6128a4604083018461218b565b949350505050565b5f819050815f5260205f209050919050565b5f6020601f8301049050919050565b5f82821b905092915050565b5f600883026129087fffffffffffffffffffffffffffffffffffffffffffffffffffffffffffffffff826128cd565b61291286836128cd565b95508019841693508086168417925050509392505050565b5f819050919050565b5f61294d612948612943846120fd565b61292a565b6120fd565b9050919050565b5f819050919050565b61296683612933565b61297a61297282612954565b8484546128d9565b825550505050565b5f5f905090565b612991612982565b61299c81848461295d565b505050565b5b818110156129bf576129b45f82612989565b6001810190506129a2565b5050565b601f821115612a04576129d5816128ac565b6129de846128be565b810160208510156129ed578190505b612a016129f9856128be565b8301826129a1565b50505b505050565b5f82821c905092915050565b5f612a245f1984600802612a09565b1980831691505092915050565b5f612a3c8383612a15565b9150826002028217905092915050565b612a558261206d565b67ffffffffffffffff811115612a6e57612a6d61229b565b5b612a788254612847565b612a838282856129c3565b5f60209050601f831160018114612ab4575f8415612aa2578287015190505b612aac8582612a31565b865550612b13565b601f198416612ac2866128ac565b5f5b82811015612ae957848901518255600182019150602085019450602081019050612ac4565b86831015612b065784890151612b02601f891682612a15565b8355505b6001600288020188555050505b505050505050565b7f4f6e6c7920746865206f776e6572206f66207468652073656e736f72204e46545f8201527f2063616e207375626d697420646174612e000000000000000000000000000000602082015250565b5f612b75603183612077565b9150612b8082612b1b565b604082019050919050565b5f6020820190508181035f830152612ba281612b69565b9050919050565b5f604082019050612bbc5f83018561221b565b612bc9602083018461221b565b9392505050565b7f4e487b71000000000000000000000000000000000000000000000000000000005f52601160045260245ffd5b5f612c07826120fd565b91507fffffffffffffffffffffffffffffffffffffffffffffffffffffffffffffffff8203612c3957612c38612bd0565b5b600182019050919050565b5f81519050919050565b5f82825260208201905092915050565b5f612c6882612c44565b612c728185612c4e565b9350612c82818560208601612087565b612c8b81612095565b840191505092915050565b5f608082019050612ca95f83018761218b565b612cb6602083018661218b565b612cc3604083018561221b565b8181036060830152612cd58184612c5e565b905095945050505050565b5f81519050612cee81611fe5565b92915050565b5f60208284031215612d0957612d08611fb2565b5b5f612d1684828501612ce0565b91505092915050565b5f81905092915050565b5f612d338261206d565b612d3d8185612d1f565b9350612d4d818560208601612087565b80840191505092915050565b5f612d648285612d29565b9150612d708284612d29565b91508190509392505050565b5f604082019050612d8f5f83018561218b565b612d9c602083018461221b565b9392505050565b7f4e487b71000000000000000000000000000000000000000000000000000000005f52601260045260245ffdfea26469706673582212201abe5b178c242cded1e6bada70f0f68141fb652b2694d034b07dc59d0bb1b65464736f6c634300081c0033",
  "linkReferences": {},
  "deployedLinkReferences": {},
  "immutableReferences": {},
  "inputSourceName": "project/contracts/Auracle.sol",
  "buildInfoId": "solc-0_8_28-32240ca67fef6e8d225c5c2d252a3b011582498f"
}