{
  "_format": "hh3-artifact-1",
  "contractName": "Auracle",
  "sourceName": "contracts/Auracle.sol",
  "abi": [
    {
      "inputs": [],
      "stateMutability": "nonpayable",
      "type": "constructor"
    },
    {
      "inputs": [
        {
          "internalType": "address",
          "name": "sender",
          "type": "address"
        },
        {
          "internalType": "uint256",
          "name": "tokenId",
          "type": "uint256"
        },
        {
          "internalType": "address",
          "name": "owner",
          "type": "address"
        }
      ],
      "name": "ERC721IncorrectOwner",
      "type": "error"
    },
    {
      "inputs": [
        {
          "internalType": "address",
          "name": "operator",
          "type": "address"
        },
        {
          "internalType": "uint256",
          "name": "tokenId",
          "type": "uint256"
        }
      ],
      "name": "ERC721InsufficientApproval",
      "type": "error"
    },
    {
      "inputs": [
        {
          "internalType": "address",
          "name": "approver",
          "type": "address"
        }
      ],
      "name": "ERC721InvalidApprover",
      "type": "error"
    },
    {
      "inputs": [
        {
          "internalType": "address",
          "name": "operator",
          "type": "address"
        }
      ],
      "name": "ERC721InvalidOperator",
      "type": "error"
    },
    {
      "inputs": [
        {
          "internalType": "address",
          "name": "owner",
          "type": "address"
        }
      ],
      "name": "ERC721InvalidOwner",
      "type": "error"
    },
    {
      "inputs": [
        {
          "internalType": "address",
          "name": "receiver",
          "type": "address"
        }
      ],
      "name": "ERC721InvalidReceiver",
      "type": "error"
    },
    {
      "inputs": [
        {
          "internalType": "address",
          "name": "sender",
          "type": "address"
        }
      ],
      "name": "ERC721InvalidSender",
      "type": "error"
    },
    {
      "inputs": [
        {
          "internalType": "uint256",
          "name": "tokenId",
          "type": "uint256"
        }
      ],
      "name": "ERC721NonexistentToken",
      "type": "error"
    },
    {
      "inputs": [
        {
          "internalType": "address",
          "name": "owner",
          "type": "address"
        }
      ],
      "name": "OwnableInvalidOwner",
      "type": "error"
    },
    {
      "inputs": [
        {
          "internalType": "address",
          "name": "account",
          "type": "address"
        }
      ],
      "name": "OwnableUnauthorizedAccount",
      "type": "error"
    },
    {
      "anonymous": false,
      "inputs": [
        {
          "indexed": true,
          "internalType": "address",
          "name": "owner",
          "type": "address"
        },
        {
          "indexed": true,
          "internalType": "address",
          "name": "approved",
          "type": "address"
        },
        {
          "indexed": true,
          "internalType": "uint256",
          "name": "tokenId",
          "type": "uint256"
        }
      ],
      "name": "Approval",
      "type": "event"
    },
    {
      "anonymous": false,
      "inputs": [
        {
          "indexed": true,
          "internalType": "address",
          "name": "owner",
          "type": "address"
        },
        {
          "indexed": true,
          "internalType": "address",
          "name": "operator",
          "type": "address"
        },
        {
          "indexed": false,
          "internalType": "bool",
          "name": "approved",
          "type": "bool"
        }
      ],
      "name": "ApprovalForAll",
      "type": "event"
    },
    {
      "anonymous": false,
      "inputs": [
        {
          "indexed": false,
          "internalType": "uint256",
          "name": "_fromTokenId",
          "type": "uint256"
        },
        {
          "indexed": false,
          "internalType": "uint256",
          "name": "_toTokenId",
          "type": "uint256"
        }
      ],
      "name": "BatchMetadataUpdate",
      "type": "event"
    },
    {
      "anonymous": false,
      "inputs": [
        {
          "indexed": false,
          "internalType": "uint256",
          "name": "tokenId",
          "type": "uint256"
        },
        {
          "indexed": false,
          "internalType": "uint256",
          "name": "pm25Value",
          "type": "uint256"
        }
      ],
      "name": "DataSubmitted",
      "type": "event"
    },
    {
      "anonymous": false,
      "inputs": [
        {
          "indexed": false,
          "internalType": "uint256",
          "name": "_tokenId",
          "type": "uint256"
        }
      ],
      "name": "MetadataUpdate",
      "type": "event"
    },
    {
      "anonymous": false,
      "inputs": [
        {
          "indexed": true,
          "internalType": "address",
          "name": "previousOwner",
          "type": "address"
        },
        {
          "indexed": true,
          "internalType": "address",
          "name": "newOwner",
          "type": "address"
        }
      ],
      "name": "OwnershipTransferred",
      "type": "event"
    },
    {
      "anonymous": false,
      "inputs": [
        {
          "indexed": true,
          "internalType": "address",
          "name": "from",
          "type": "address"
        },
        {
          "indexed": true,
          "internalType": "address",
          "name": "to",
          "type": "address"
        },
        {
          "indexed": true,
          "internalType": "uint256",
          "name": "tokenId",
          "type": "uint256"
        }
      ],
      "name": "Transfer",
      "type": "event"
    },
    {
      "inputs": [
        {
          "internalType": "address",
          "name": "to",
          "type": "address"
        },
        {
          "internalType": "uint256",
          "name": "tokenId",
          "type": "uint256"
        }
      ],
      "name": "approve",
      "outputs": [],
      "stateMutability": "nonpayable",
      "type": "function"
    },
    {
      "inputs": [
        {
          "internalType": "address",
          "name": "owner",
          "type": "address"
        }
      ],
      "name": "balanceOf",
      "outputs": [
        {
          "internalType": "uint256",
          "name": "",
          "type": "uint256"
        }
      ],
      "stateMutability": "view",
      "type": "function"
    },
    {
      "inputs": [
        {
          "internalType": "uint256",
          "name": "tokenId",
          "type": "uint256"
        }
      ],
      "name": "getApproved",
      "outputs": [
        {
          "internalType": "address",
          "name": "",
          "type": "address"
        }
      ],
      "stateMutability": "view",
      "type": "function"
    },
    {
      "inputs": [
        {
          "internalType": "uint256",
          "name": "_tokenId",
          "type": "uint256"
        }
      ],
      "name": "getSensorData",
      "outputs": [
        {
          "components": [
            {
              "internalType": "string",
              "name": "latitude",
              "type": "string"
            },
            {
              "internalType": "string",
              "name": "longitude",
              "type": "string"
            },
            {
              "internalType": "uint256",
              "name": "lastPm25Value",
              "type": "uint256"
            },
            {
              "internalType": "uint256",
              "name": "lastUpdated",
              "type": "uint256"
            },
            {
              "internalType": "uint256",
              "name": "uptimeScore",
              "type": "uint256"
            },
            {
              "internalType": "uint256",
              "name": "reputationScore",
              "type": "uint256"
            },
            {
              "internalType": "string",
              "name": "geohash",
              "type": "string"
            }
          ],
          "internalType": "struct Auracle.SensorMetadata",
          "name": "",
          "type": "tuple"
        }
      ],
      "stateMutability": "view",
      "type": "function"
    },
    {
      "inputs": [
        {
          "internalType": "address",
          "name": "owner",
          "type": "address"
        },
        {
          "internalType": "address",
          "name": "operator",
          "type": "address"
        }
      ],
      "name": "isApprovedForAll",
      "outputs": [
        {
          "internalType": "bool",
          "name": "",
          "type": "bool"
        }
      ],
      "stateMutability": "view",
      "type": "function"
    },
    {
      "inputs": [],
      "name": "name",
      "outputs": [
        {
          "internalType": "string",
          "name": "",
          "type": "string"
        }
      ],
      "stateMutability": "view",
      "type": "function"
    },
    {
      "inputs": [],
      "name": "owner",
      "outputs": [
        {
          "internalType": "address",
          "name": "",
          "type": "address"
        }
      ],
      "stateMutability": "view",
      "type": "function"
    },
    {
      "inputs": [
        {
          "internalType": "uint256",
          "name": "tokenId",
          "type": "uint256"
        }
      ],
      "name": "ownerOf",
      "outputs": [
        {
          "internalType": "address",
          "name": "",
          "type": "address"
        }
      ],
      "stateMutability": "view",
      "type": "function"
    },
    {
      "inputs": [
        {
          "internalType": "string",
          "name": "_latitude",
          "type": "string"
        },
        {
          "internalType": "string",
          "name": "_longitude",
          "type": "string"
        },
        {
          "internalType": "string",
          "name": "_geohash",
          "type": "string"
        }
      ],
      "name": "registerSensor",
      "outputs": [
        {
          "internalType": "uint256",
          "name": "",
          "type": "uint256"
        }
      ],
      "stateMutability": "nonpayable",
      "type": "function"
    },
    {
      "inputs": [],
      "name": "renounceOwnership",
      "outputs": [],
      "stateMutability": "nonpayable",
      "type": "function"
    },
    {
      "inputs": [
        {
          "internalType": "address",
          "name": "from",
          "type": "address"
        },
        {
          "internalType": "address",
          "name": "to",
          "type": "address"
        },
        {
          "internalType": "uint256",
          "name": "tokenId",
          "type": "uint256"
        }
      ],
      "name": "safeTransferFrom",
      "outputs": [],
      "stateMutability": "nonpayable",
      "type": "function"
    },
    {
      "inputs": [
        {
          "internalType": "address",
          "name": "from",
          "type": "address"
        },
        {
          "internalType": "address",
          "name": "to",
          "type": "address"
        },
        {
          "internalType": "uint256",
          "name": "tokenId",
          "type": "uint256"
        },
        {
          "internalType": "bytes",
          "name": "data",
          "type": "bytes"
        }
      ],
      "name": "safeTransferFrom",
      "outputs": [],
      "stateMutability": "nonpayable",
      "type": "function"
    },
    {
      "inputs": [
        {
          "internalType": "uint256",
          "name": "",
          "type": "uint256"
        }
      ],
      "name": "sensorData",
      "outputs": [
        {
          "internalType": "string",
          "name": "latitude",
          "type": "string"
        },
        {
          "internalType": "string",
          "name": "longitude",
          "type": "string"
        },
        {
          "internalType": "uint256",
          "name": "lastPm25Value",
          "type": "uint256"
        },
        {
          "internalType": "uint256",
          "name": "lastUpdated",
          "type": "uint256"
        },
        {
          "internalType": "uint256",
          "name": "uptimeScore",
          "type": "uint256"
        },
        {
          "internalType": "uint256",
          "name": "reputationScore",
          "type": "uint256"
        },
        {
          "internalType": "string",
          "name": "geohash",
          "type": "string"
        }
      ],
      "stateMutability": "view",
      "type": "function"
    },
    {
      "inputs": [
        {
          "internalType": "string",
          "name": "",
          "type": "string"
        },
        {
          "internalType": "uint256",
          "name": "",
          "type": "uint256"
        }
      ],
      "name": "sensorsByGeohash",
      "outputs": [
        {
          "internalType": "uint256",
          "name": "",
          "type": "uint256"
        }
      ],
      "stateMutability": "view",
      "type": "function"
    },
    {
      "inputs": [
        {
          "internalType": "address",
          "name": "operator",
          "type": "address"
        },
        {
          "internalType": "bool",
          "name": "approved",
          "type": "bool"
        }
      ],
      "name": "setApprovalForAll",
      "outputs": [],
      "stateMutability": "nonpayable",
      "type": "function"
    },
    {
      "inputs": [
        {
          "internalType": "string",
          "name": "newBaseURI",
          "type": "string"
        }
      ],
      "name": "setBaseURI",
      "outputs": [],
      "stateMutability": "nonpayable",
      "type": "function"
    },
    {
      "inputs": [
        {
          "internalType": "uint256",
          "name": "_tokenId",
          "type": "uint256"
        },
        {
          "internalType": "uint256",
          "name": "_pm25Value",
          "type": "uint256"
        }
      ],
      "name": "submitData",
      "outputs": [],
      "stateMutability": "nonpayable",
      "type": "function"
    },
    {
      "inputs": [
        {
          "internalType": "bytes4",
          "name": "interfaceId",
          "type": "bytes4"
        }
      ],
      "name": "supportsInterface",
      "outputs": [
        {
          "internalType": "bool",
          "name": "",
          "type": "bool"
        }
      ],
      "stateMutability": "view",
      "type": "function"
    },
    {
      "inputs": [],
      "name": "symbol",
      "outputs": [
        {
          "internalType": "string",
          "name": "",
          "type": "string"
        }
      ],
      "stateMutability": "view",
      "type": "function"
    },
    {
      "inputs": [
        {
          "internalType": "uint256",
          "name": "tokenId",
          "type": "uint256"
        }
      ],
      "name": "tokenURI",
      "outputs": [
        {
          "internalType": "string",
          "name": "",
          "type": "string"
        }
      ],
      "stateMutability": "view",
      "type": "function"
    },
    {
      "inputs": [],
      "name": "totalSupply",
      "outputs": [
        {
          "internalType": "uint256",
          "name": "",
          "type": "uint256"
        }
      ],
      "stateMutability": "view",
      "type": "function"
    },
    {
      "inputs": [
        {
          "internalType": "address",
          "name": "from",
          "type": "address"
        },
        {
          "internalType": "address",
          "name": "to",
          "type": "address"
        },
        {
          "internalType": "uint256",
          "name": "tokenId",
          "type": "uint256"
        }
      ],
      "name": "transferFrom",
      "outputs": [],
      "stateMutability": "nonpayable",
      "type": "function"
    },
    {
      "inputs": [
        {
          "internalType": "address",
          "name": "newOwner",
          "type": "address"
        }
      ],
      "name": "transferOwnership",
      "outputs": [],
      "stateMutability": "nonpayable",
      "type": "function"
    }
  ],
  "bytecode": "0x608060405234801561000f575f5ffd5b50336040518060400160405280600e81526020016d20bab930b1b6329029b2b739b7b960911b815250604051806040016040528060048152602001634155524160e01b815250815f90816100639190610198565b5060016100708282610198565b5050506001600160a01b0381166100a057604051631e4fbdf760e01b81525f600482015260240160405180910390fd5b6100a9816100af565b50610252565b600780546001600160a01b038381166001600160a01b0319831681179093556040519116919082907f8be0079c531659141344cd1fd0a4f28419497f9722a3daafe3b4186f6b6457e0905f90a35050565b634e487b7160e01b5f52604160045260245ffd5b600181811c9082168061012857607f821691505b60208210810361014657634e487b7160e01b5f52602260045260245ffd5b50919050565b601f82111561019357805f5260205f20601f840160051c810160208510156101715750805b601f840160051c820191505b81811015610190575f815560010161017d565b50505b505050565b81516001600160401b038111156101b1576101b1610100565b6101c5816101bf8454610114565b8461014c565b6020601f8211600181146101f7575f83156101e05750848201515b5f19600385901b1c1916600184901b178455610190565b5f84815260208120601f198516915b828110156102265787850151825560209485019460019092019101610206565b508482101561024357868401515f19600387901b60f8161c191681555b50505050600190811b01905550565b611ced8061025f5f395ff3fe608060405234801561000f575f5ffd5b5060043610610148575f3560e01c8063822b2c4c116100bf578063c30de21e11610079578063c30de21e146102ba578063c87b56dd146102cd578063d816bf23146102e0578063e985e9c5146102f3578063ed044aa314610306578063f2fde38b14610326575f5ffd5b8063822b2c4c146102425780638da5cb5b1461025557806395d89b4114610266578063a22cb4651461026e578063ab562a1d14610281578063b88d4fde146102a7575f5ffd5b806323b872dd1161011057806323b872dd146101db57806342842e0e146101ee57806355f804b3146102015780636352211e1461021457806370a0823114610227578063715018a61461023a575f5ffd5b806301ffc9a71461014c57806306fdde0314610174578063081812fc14610189578063095ea7b3146101b457806318160ddd146101c9575b5f5ffd5b61015f61015a366004611621565b610339565b60405190151581526020015b60405180910390f35b61017c610349565b60405161016b919061166a565b61019c61019736600461167c565b6103d8565b6040516001600160a01b03909116815260200161016b565b6101c76101c23660046116ae565b6103ff565b005b6008545b60405190815260200161016b565b6101c76101e93660046116d6565b61040e565b6101c76101fc3660046116d6565b61049c565b6101c761020f3660046117b9565b6104bb565b61019c61022236600461167c565b6104cf565b6101cd6102353660046117eb565b6104d9565b6101c761051e565b6101c7610250366004611804565b610531565b6007546001600160a01b031661019c565b61017c6105ef565b6101c761027c366004611824565b6105fe565b61029461028f36600461167c565b610609565b60405161016b979695949392919061185d565b6101c76102b53660046118bb565b6107d4565b6101cd6102c8366004611932565b6107ec565b61017c6102db36600461167c565b6108fe565b6101cd6102ee3660046119c0565b610909565b61015f610301366004611a02565b610945565b61031961031436600461167c565b610972565b60405161016b9190611a33565b6101c76103343660046117eb565b610ba4565b5f61034382610be1565b92915050565b60605f805461035790611abb565b80601f016020809104026020016040519081016040528092919081815260200182805461038390611abb565b80156103ce5780601f106103a5576101008083540402835291602001916103ce565b820191905f5260205f20905b8154815290600101906020018083116103b157829003601f168201915b5050505050905090565b5f6103e282610c05565b505f828152600460205260409020546001600160a01b0316610343565b61040a828233610c3d565b5050565b6001600160a01b03821661043c57604051633250574960e11b81525f60048201526024015b60405180910390fd5b5f610448838333610c4a565b9050836001600160a01b0316816001600160a01b031614610496576040516364283d7b60e01b81526001600160a01b0380861660048301526024820184905282166044820152606401610433565b50505050565b6104b683838360405180602001604052805f8152506107d4565b505050565b6104c3610d3c565b600961040a8282611b37565b5f61034382610c05565b5f6001600160a01b038216610503576040516322718ad960e21b81525f6004820152602401610433565b506001600160a01b03165f9081526003602052604090205490565b610526610d3c565b61052f5f610d69565b565b5f828152600260205260409020546001600160a01b031633146105965760405162461bcd60e51b815260206004820152601f60248201527f4f6e6c7920746865206f776e65722063616e207375626d697420646174612e006044820152606401610433565b5f828152600a6020908152604091829020600281018490554260039091015581518481529081018390527f8e02165c32e3fe774a93d7f62c2ba5fb32479a920c28e338092644bfbafd6093910160405180910390a15050565b60606001805461035790611abb565b61040a338383610dba565b600a6020525f908152604090208054819061062390611abb565b80601f016020809104026020016040519081016040528092919081815260200182805461064f90611abb565b801561069a5780601f106106715761010080835404028352916020019161069a565b820191905f5260205f20905b81548152906001019060200180831161067d57829003601f168201915b5050505050908060010180546106af90611abb565b80601f01602080910402602001604051908101604052809291908181526020018280546106db90611abb565b80156107265780601f106106fd57610100808354040283529160200191610726565b820191905f5260205f20905b81548152906001019060200180831161070957829003601f168201915b50505050509080600201549080600301549080600401549080600501549080600601805461075390611abb565b80601f016020809104026020016040519081016040528092919081815260200182805461077f90611abb565b80156107ca5780601f106107a1576101008083540402835291602001916107ca565b820191905f5260205f20905b8154815290600101906020018083116107ad57829003601f168201915b5050505050905087565b6107df84848461040e565b6104963385858585610e58565b600880545f918190836107fe83611bf2565b919050555061080d3382610f80565b6040805160e08101825286815260208082018790525f82840181905242606084015260646080840181905260a084015260c08301879052848152600a909152919091208151819061085e9082611b37565b50602082015160018201906108739082611b37565b5060408201516002820155606082015160038201556080820151600482015560a0820151600582015560c082015160068201906108b09082611b37565b509050505f6108c0846005610f99565b9050600b816040516108d29190611c2d565b9081526040516020918190038201902080546001810182555f9182529190200182905550949350505050565b6060610343826110a2565b8151602081840181018051600b825292820191850191909120919052805482908110610933575f80fd5b905f5260205f20015f91509150505481565b6001600160a01b039182165f90815260056020908152604080832093909416825291909152205460ff1690565b6109ae6040518060e0016040528060608152602001606081526020015f81526020015f81526020015f81526020015f8152602001606081525090565b5f828152600a602052604090819020815160e081019092528054829082906109d590611abb565b80601f0160208091040260200160405190810160405280929190818152602001828054610a0190611abb565b8015610a4c5780601f10610a2357610100808354040283529160200191610a4c565b820191905f5260205f20905b815481529060010190602001808311610a2f57829003601f168201915b50505050508152602001600182018054610a6590611abb565b80601f0160208091040260200160405190810160405280929190818152602001828054610a9190611abb565b8015610adc5780601f10610ab357610100808354040283529160200191610adc565b820191905f5260205f20905b815481529060010190602001808311610abf57829003601f168201915b5050505050815260200160028201548152602001600382015481526020016004820154815260200160058201548152602001600682018054610b1d90611abb565b80601f0160208091040260200160405190810160405280929190818152602001828054610b4990611abb565b8015610b945780601f10610b6b57610100808354040283529160200191610b94565b820191905f5260205f20905b815481529060010190602001808311610b7757829003601f168201915b5050505050815250509050919050565b610bac610d3c565b6001600160a01b038116610bd557604051631e4fbdf760e01b81525f6004820152602401610433565b610bde81610d69565b50565b5f6001600160e01b03198216632483248360e11b14806103435750610343826111a1565b5f818152600260205260408120546001600160a01b03168061034357604051637e27328960e01b815260048101849052602401610433565b6104b683838360016111f0565b5f828152600260205260408120546001600160a01b0390811690831615610c7657610c768184866112f4565b6001600160a01b03811615610cb057610c915f855f5f6111f0565b6001600160a01b0381165f90815260036020526040902080545f190190555b6001600160a01b03851615610cde576001600160a01b0385165f908152600360205260409020805460010190555b5f8481526002602052604080822080546001600160a01b0319166001600160a01b0389811691821790925591518793918516917fddf252ad1be2c89b69c2b068fc378daa952ba7f163c4a11628f55a4df523b3ef91a4949350505050565b6007546001600160a01b0316331461052f5760405163118cdaa760e01b8152336004820152602401610433565b600780546001600160a01b038381166001600160a01b0319831681179093556040519116919082907f8be0079c531659141344cd1fd0a4f28419497f9722a3daafe3b4186f6b6457e0905f90a35050565b6001600160a01b038216610dec57604051630b61174360e31b81526001600160a01b0383166004820152602401610433565b6001600160a01b038381165f81815260056020908152604080832094871680845294825291829020805460ff191686151590811790915591519182527f17307eab39ab6107e8899845ad3d59bd9653f200f220920489ca2b5937696c31910160405180910390a3505050565b6001600160a01b0383163b15610f7957604051630a85bd0160e11b81526001600160a01b0384169063150b7a0290610e9a908890889087908790600401611c38565b6020604051808303815f875af1925050508015610ed4575060408051601f3d908101601f19168201909252610ed191810190611c74565b60015b610f3b573d808015610f01576040519150601f19603f3d011682016040523d82523d5f602084013e610f06565b606091505b5080515f03610f3357604051633250574960e11b81526001600160a01b0385166004820152602401610433565b805160208201fd5b6001600160e01b03198116630a85bd0160e11b14610f7757604051633250574960e11b81526001600160a01b0385166004820152602401610433565b505b5050505050565b61040a828260405180602001604052805f815250611358565b81516060908390831115610ffb5760405162461bcd60e51b815260206004820152602360248201527f507265666978206c656e677468206578636565647320737472696e67206c656e6044820152620cee8d60eb1b6064820152608401610433565b5f8367ffffffffffffffff81111561101557611015611710565b6040519080825280601f01601f19166020018201604052801561103f576020820181803683370190505b5090505f5b848110156110995782818151811061105e5761105e611c8f565b602001015160f81c60f81b82828151811061107b5761107b611c8f565b60200101906001600160f81b03191690815f1a905350600101611044565b50949350505050565b60606110ad82610c05565b505f82815260066020526040812080546110c690611abb565b80601f01602080910402602001604051908101604052809291908181526020018280546110f290611abb565b801561113d5780601f106111145761010080835404028352916020019161113d565b820191905f5260205f20905b81548152906001019060200180831161112057829003601f168201915b505050505090505f61114d61136f565b905080515f0361115e575092915050565b815115611190578082604051602001611178929190611ca3565b60405160208183030381529060405292505050919050565b6111998461137e565b949350505050565b5f6001600160e01b031982166380ac58cd60e01b14806111d157506001600160e01b03198216635b5e139f60e01b145b8061034357506301ffc9a760e01b6001600160e01b0319831614610343565b808061120457506001600160a01b03821615155b156112c5575f61121384610c05565b90506001600160a01b0383161580159061123f5750826001600160a01b0316816001600160a01b031614155b801561125257506112508184610945565b155b1561127b5760405163a9fbf51f60e01b81526001600160a01b0384166004820152602401610433565b81156112c35783856001600160a01b0316826001600160a01b03167f8c5be1e5ebec7d5bd14f71427d1e84f3dd0314c0f7b2291e5b200ac8c7c3b92560405160405180910390a45b505b50505f90815260046020526040902080546001600160a01b0319166001600160a01b0392909216919091179055565b6112ff8383836113e3565b6104b6576001600160a01b03831661132d57604051637e27328960e01b815260048101829052602401610433565b60405163177e802f60e01b81526001600160a01b038316600482015260248101829052604401610433565b6113628383611444565b6104b6335f858585610e58565b60606009805461035790611abb565b606061138982610c05565b505f61139361136f565b90505f8151116113b15760405180602001604052805f8152506113dc565b806113bb846114a5565b6040516020016113cc929190611ca3565b6040516020818303038152906040525b9392505050565b5f6001600160a01b038316158015906111995750826001600160a01b0316846001600160a01b0316148061141c575061141c8484610945565b806111995750505f908152600460205260409020546001600160a01b03908116911614919050565b6001600160a01b03821661146d57604051633250574960e11b81525f6004820152602401610433565b5f61147983835f610c4a565b90506001600160a01b038116156104b6576040516339e3563760e11b81525f6004820152602401610433565b60605f6114b183611535565b60010190505f8167ffffffffffffffff8111156114d0576114d0611710565b6040519080825280601f01601f1916602001820160405280156114fa576020820181803683370190505b5090508181016020015b5f19016f181899199a1a9b1b9c1cb0b131b232b360811b600a86061a8153600a850494508461150457509392505050565b5f8072184f03e93ff9f4daa797ed6e38ed64bf6a1f0160401b83106115735772184f03e93ff9f4daa797ed6e38ed64bf6a1f0160401b830492506040015b6d04ee2d6d415b85acef8100000000831061159f576d04ee2d6d415b85acef8100000000830492506020015b662386f26fc1000083106115bd57662386f26fc10000830492506010015b6305f5e10083106115d5576305f5e100830492506008015b61271083106115e957612710830492506004015b606483106115fb576064830492506002015b600a83106103435760010192915050565b6001600160e01b031981168114610bde575f5ffd5b5f60208284031215611631575f5ffd5b81356113dc8161160c565b5f81518084528060208401602086015e5f602082860101526020601f19601f83011685010191505092915050565b602081525f6113dc602083018461163c565b5f6020828403121561168c575f5ffd5b5035919050565b80356001600160a01b03811681146116a9575f5ffd5b919050565b5f5f604083850312156116bf575f5ffd5b6116c883611693565b946020939093013593505050565b5f5f5f606084860312156116e8575f5ffd5b6116f184611693565b92506116ff60208501611693565b929592945050506040919091013590565b634e487b7160e01b5f52604160045260245ffd5b5f5f67ffffffffffffffff84111561173e5761173e611710565b50604051601f19601f85018116603f0116810181811067ffffffffffffffff8211171561176d5761176d611710565b604052838152905080828401851015611784575f5ffd5b838360208301375f60208583010152509392505050565b5f82601f8301126117aa575f5ffd5b6113dc83833560208501611724565b5f602082840312156117c9575f5ffd5b813567ffffffffffffffff8111156117df575f5ffd5b6111998482850161179b565b5f602082840312156117fb575f5ffd5b6113dc82611693565b5f5f60408385031215611815575f5ffd5b50508035926020909101359150565b5f5f60408385031215611835575f5ffd5b61183e83611693565b915060208301358015158114611852575f5ffd5b809150509250929050565b60e081525f61186f60e083018a61163c565b8281036020840152611881818a61163c565b90508760408401528660608401528560808401528460a084015282810360c08401526118ad818561163c565b9a9950505050505050505050565b5f5f5f5f608085870312156118ce575f5ffd5b6118d785611693565b93506118e560208601611693565b925060408501359150606085013567ffffffffffffffff811115611907575f5ffd5b8501601f81018713611917575f5ffd5b61192687823560208401611724565b91505092959194509250565b5f5f5f60608486031215611944575f5ffd5b833567ffffffffffffffff81111561195a575f5ffd5b6119668682870161179b565b935050602084013567ffffffffffffffff811115611982575f5ffd5b61198e8682870161179b565b925050604084013567ffffffffffffffff8111156119aa575f5ffd5b6119b68682870161179b565b9150509250925092565b5f5f604083850312156119d1575f5ffd5b823567ffffffffffffffff8111156119e7575f5ffd5b6119f38582860161179b565b95602094909401359450505050565b5f5f60408385031215611a13575f5ffd5b611a1c83611693565b9150611a2a60208401611693565b90509250929050565b602081525f825160e06020840152611a4f61010084018261163c565b90506020840151601f19848303016040850152611a6c828261163c565b9150506040840151606084015260608401516080840152608084015160a084015260a084015160c084015260c0840151601f198483030160e0850152611ab2828261163c565b95945050505050565b600181811c90821680611acf57607f821691505b602082108103611aed57634e487b7160e01b5f52602260045260245ffd5b50919050565b601f8211156104b657805f5260205f20601f840160051c81016020851015611b185750805b601f840160051c820191505b81811015610f79575f8155600101611b24565b815167ffffffffffffffff811115611b5157611b51611710565b611b6581611b5f8454611abb565b84611af3565b6020601f821160018114611b97575f8315611b805750848201515b5f19600385901b1c1916600184901b178455610f79565b5f84815260208120601f198516915b82811015611bc65787850151825560209485019460019092019101611ba6565b5084821015611be357868401515f19600387901b60f8161c191681555b50505050600190811b01905550565b5f60018201611c0f57634e487b7160e01b5f52601160045260245ffd5b5060010190565b5f81518060208401855e5f93019283525090919050565b5f6113dc8284611c16565b6001600160a01b03858116825284166020820152604081018390526080606082018190525f90611c6a9083018461163c565b9695505050505050565b5f60208284031215611c84575f5ffd5b81516113dc8161160c565b634e487b7160e01b5f52603260045260245ffd5b5f611199611cb18386611c16565b84611c1656fea26469706673582212206e05408ca57bee57e2fa22f0fc9cfaaf8ae5634b136dd3a8127cc79977e7425264736f6c634300081c0033",
  "linkReferences": {},
  "deployedLinkReferences": {},
  "immutableReferences": {},
  "inputSourceName": "project/contracts/Auracle.sol",
  "buildInfoId": "solc-0_8_28-a50b58f9b1f84033b82fb4d16c0623aefbdca6e1"
}