{
  "_format": "hh3-artifact-1",
  "contractName": "Auracle",
  "sourceName": "contracts/Auracle.sol",
  "abi": [
    {
      "inputs": [],
      "stateMutability": "nonpayable",
      "type": "constructor"
    },
    {
      "inputs": [
        {
          "internalType": "address",
          "name": "sender",
          "type": "address"
        },
        {
          "internalType": "uint256",
          "name": "tokenId",
          "type": "uint256"
        },
        {
          "internalType": "address",
          "name": "owner",
          "type": "address"
        }
      ],
      "name": "ERC721IncorrectOwner",
      "type": "error"
    },
    {
      "inputs": [
        {
          "internalType": "address",
          "name": "operator",
          "type": "address"
        },
        {
          "internalType": "uint256",
          "name": "tokenId",
          "type": "uint256"
        }
      ],
      "name": "ERC721InsufficientApproval",
      "type": "error"
    },
    {
      "inputs": [
        {
          "internalType": "address",
          "name": "approver",
          "type": "address"
        }
      ],
      "name": "ERC721InvalidApprover",
      "type": "error"
    },
    {
      "inputs": [
        {
          "internalType": "address",
          "name": "operator",
          "type": "address"
        }
      ],
      "name": "ERC721InvalidOperator",
      "type": "error"
    },
    {
      "inputs": [
        {
          "internalType": "address",
          "name": "owner",
          "type": "address"
        }
      ],
      "name": "ERC721InvalidOwner",
      "type": "error"
    },
    {
      "inputs": [
        {
          "internalType": "address",
          "name": "receiver",
          "type": "address"
        }
      ],
      "name": "ERC721InvalidReceiver",
      "type": "error"
    },
    {
      "inputs": [
        {
          "internalType": "address",
          "name": "sender",
          "type": "address"
        }
      ],
      "name": "ERC721InvalidSender",
      "type": "error"
    },
    {
      "inputs": [
        {
          "internalType": "uint256",
          "name": "tokenId",
          "type": "uint256"
        }
      ],
      "name": "ERC721NonexistentToken",
      "type": "error"
    },
    {
      "inputs": [
        {
          "internalType": "address",
          "name": "owner",
          "type": "address"
        }
      ],
      "name": "OwnableInvalidOwner",
      "type": "error"
    },
    {
      "inputs": [
        {
          "internalType": "address",
          "name": "account",
          "type": "address"
        }
      ],
      "name": "OwnableUnauthorizedAccount",
      "type": "error"
    },
    {
      "anonymous": false,
      "inputs": [
        {
          "indexed": true,
          "internalType": "address",
          "name": "owner",
          "type": "address"
        },
        {
          "indexed": true,
          "internalType": "address",
          "name": "approved",
          "type": "address"
        },
        {
          "indexed": true,
          "internalType": "uint256",
          "name": "tokenId",
          "type": "uint256"
        }
      ],
      "name": "Approval",
      "type": "event"
    },
    {
      "anonymous": false,
      "inputs": [
        {
          "indexed": true,
          "internalType": "address",
          "name": "owner",
          "type": "address"
        },
        {
          "indexed": true,
          "internalType": "address",
          "name": "operator",
          "type": "address"
        },
        {
          "indexed": false,
          "internalType": "bool",
          "name": "approved",
          "type": "bool"
        }
      ],
      "name": "ApprovalForAll",
      "type": "event"
    },
    {
      "anonymous": false,
      "inputs": [
        {
          "indexed": false,
          "internalType": "uint256",
          "name": "_fromTokenId",
          "type": "uint256"
        },
        {
          "indexed": false,
          "internalType": "uint256",
          "name": "_toTokenId",
          "type": "uint256"
        }
      ],
      "name": "BatchMetadataUpdate",
      "type": "event"
    },
    {
      "anonymous": false,
      "inputs": [
        {
          "indexed": false,
          "internalType": "uint256",
          "name": "tokenId",
          "type": "uint256"
        },
        {
          "indexed": false,
          "internalType": "uint256",
          "name": "pm25Value",
          "type": "uint256"
        }
      ],
      "name": "DataSubmitted",
      "type": "event"
    },
    {
      "anonymous": false,
      "inputs": [
        {
          "indexed": false,
          "internalType": "uint256",
          "name": "_tokenId",
          "type": "uint256"
        }
      ],
      "name": "MetadataUpdate",
      "type": "event"
    },
    {
      "anonymous": false,
      "inputs": [
        {
          "indexed": true,
          "internalType": "address",
          "name": "previousOwner",
          "type": "address"
        },
        {
          "indexed": true,
          "internalType": "address",
          "name": "newOwner",
          "type": "address"
        }
      ],
      "name": "OwnershipTransferred",
      "type": "event"
    },
    {
      "anonymous": false,
      "inputs": [
        {
          "indexed": true,
          "internalType": "address",
          "name": "from",
          "type": "address"
        },
        {
          "indexed": true,
          "internalType": "address",
          "name": "to",
          "type": "address"
        },
        {
          "indexed": true,
          "internalType": "uint256",
          "name": "tokenId",
          "type": "uint256"
        }
      ],
      "name": "Transfer",
      "type": "event"
    },
    {
      "inputs": [
        {
          "internalType": "address",
          "name": "to",
          "type": "address"
        },
        {
          "internalType": "uint256",
          "name": "tokenId",
          "type": "uint256"
        }
      ],
      "name": "approve",
      "outputs": [],
      "stateMutability": "nonpayable",
      "type": "function"
    },
    {
      "inputs": [
        {
          "internalType": "address",
          "name": "owner",
          "type": "address"
        }
      ],
      "name": "balanceOf",
      "outputs": [
        {
          "internalType": "uint256",
          "name": "",
          "type": "uint256"
        }
      ],
      "stateMutability": "view",
      "type": "function"
    },
    {
      "inputs": [
        {
          "internalType": "uint256",
          "name": "tokenId",
          "type": "uint256"
        }
      ],
      "name": "getApproved",
      "outputs": [
        {
          "internalType": "address",
          "name": "",
          "type": "address"
        }
      ],
      "stateMutability": "view",
      "type": "function"
    },
    {
      "inputs": [
        {
          "internalType": "uint256",
          "name": "_tokenId",
          "type": "uint256"
        }
      ],
      "name": "getSensorData",
      "outputs": [
        {
          "components": [
            {
              "internalType": "string",
              "name": "latitude",
              "type": "string"
            },
            {
              "internalType": "string",
              "name": "longitude",
              "type": "string"
            },
            {
              "internalType": "uint256",
              "name": "lastPm25Value",
              "type": "uint256"
            },
            {
              "internalType": "uint256",
              "name": "lastUpdated",
              "type": "uint256"
            },
            {
              "internalType": "uint256",
              "name": "uptimeScore",
              "type": "uint256"
            },
            {
              "internalType": "uint256",
              "name": "reputationScore",
              "type": "uint256"
            }
          ],
          "internalType": "struct Auracle.SensorMetadata",
          "name": "",
          "type": "tuple"
        }
      ],
      "stateMutability": "view",
      "type": "function"
    },
    {
      "inputs": [
        {
          "internalType": "address",
          "name": "owner",
          "type": "address"
        },
        {
          "internalType": "address",
          "name": "operator",
          "type": "address"
        }
      ],
      "name": "isApprovedForAll",
      "outputs": [
        {
          "internalType": "bool",
          "name": "",
          "type": "bool"
        }
      ],
      "stateMutability": "view",
      "type": "function"
    },
    {
      "inputs": [],
      "name": "name",
      "outputs": [
        {
          "internalType": "string",
          "name": "",
          "type": "string"
        }
      ],
      "stateMutability": "view",
      "type": "function"
    },
    {
      "inputs": [],
      "name": "owner",
      "outputs": [
        {
          "internalType": "address",
          "name": "",
          "type": "address"
        }
      ],
      "stateMutability": "view",
      "type": "function"
    },
    {
      "inputs": [
        {
          "internalType": "uint256",
          "name": "tokenId",
          "type": "uint256"
        }
      ],
      "name": "ownerOf",
      "outputs": [
        {
          "internalType": "address",
          "name": "",
          "type": "address"
        }
      ],
      "stateMutability": "view",
      "type": "function"
    },
    {
      "inputs": [
        {
          "internalType": "string",
          "name": "_latitude",
          "type": "string"
        },
        {
          "internalType": "string",
          "name": "_longitude",
          "type": "string"
        }
      ],
      "name": "registerSensor",
      "outputs": [
        {
          "internalType": "uint256",
          "name": "",
          "type": "uint256"
        }
      ],
      "stateMutability": "nonpayable",
      "type": "function"
    },
    {
      "inputs": [],
      "name": "renounceOwnership",
      "outputs": [],
      "stateMutability": "nonpayable",
      "type": "function"
    },
    {
      "inputs": [
        {
          "internalType": "address",
          "name": "from",
          "type": "address"
        },
        {
          "internalType": "address",
          "name": "to",
          "type": "address"
        },
        {
          "internalType": "uint256",
          "name": "tokenId",
          "type": "uint256"
        }
      ],
      "name": "safeTransferFrom",
      "outputs": [],
      "stateMutability": "nonpayable",
      "type": "function"
    },
    {
      "inputs": [
        {
          "internalType": "address",
          "name": "from",
          "type": "address"
        },
        {
          "internalType": "address",
          "name": "to",
          "type": "address"
        },
        {
          "internalType": "uint256",
          "name": "tokenId",
          "type": "uint256"
        },
        {
          "internalType": "bytes",
          "name": "data",
          "type": "bytes"
        }
      ],
      "name": "safeTransferFrom",
      "outputs": [],
      "stateMutability": "nonpayable",
      "type": "function"
    },
    {
      "inputs": [
        {
          "internalType": "uint256",
          "name": "",
          "type": "uint256"
        }
      ],
      "name": "sensorData",
      "outputs": [
        {
          "internalType": "string",
          "name": "latitude",
          "type": "string"
        },
        {
          "internalType": "string",
          "name": "longitude",
          "type": "string"
        },
        {
          "internalType": "uint256",
          "name": "lastPm25Value",
          "type": "uint256"
        },
        {
          "internalType": "uint256",
          "name": "lastUpdated",
          "type": "uint256"
        },
        {
          "internalType": "uint256",
          "name": "uptimeScore",
          "type": "uint256"
        },
        {
          "internalType": "uint256",
          "name": "reputationScore",
          "type": "uint256"
        }
      ],
      "stateMutability": "view",
      "type": "function"
    },
    {
      "inputs": [
        {
          "internalType": "address",
          "name": "operator",
          "type": "address"
        },
        {
          "internalType": "bool",
          "name": "approved",
          "type": "bool"
        }
      ],
      "name": "setApprovalForAll",
      "outputs": [],
      "stateMutability": "nonpayable",
      "type": "function"
    },
    {
      "inputs": [
        {
          "internalType": "string",
          "name": "newBaseURI",
          "type": "string"
        }
      ],
      "name": "setBaseURI",
      "outputs": [],
      "stateMutability": "nonpayable",
      "type": "function"
    },
    {
      "inputs": [
        {
          "internalType": "uint256",
          "name": "_tokenId",
          "type": "uint256"
        },
        {
          "internalType": "uint256",
          "name": "_pm25Value",
          "type": "uint256"
        }
      ],
      "name": "submitData",
      "outputs": [],
      "stateMutability": "nonpayable",
      "type": "function"
    },
    {
      "inputs": [
        {
          "internalType": "bytes4",
          "name": "interfaceId",
          "type": "bytes4"
        }
      ],
      "name": "supportsInterface",
      "outputs": [
        {
          "internalType": "bool",
          "name": "",
          "type": "bool"
        }
      ],
      "stateMutability": "view",
      "type": "function"
    },
    {
      "inputs": [],
      "name": "symbol",
      "outputs": [
        {
          "internalType": "string",
          "name": "",
          "type": "string"
        }
      ],
      "stateMutability": "view",
      "type": "function"
    },
    {
      "inputs": [
        {
          "internalType": "uint256",
          "name": "tokenId",
          "type": "uint256"
        }
      ],
      "name": "tokenURI",
      "outputs": [
        {
          "internalType": "string",
          "name": "",
          "type": "string"
        }
      ],
      "stateMutability": "view",
      "type": "function"
    },
    {
      "inputs": [],
      "name": "totalSupply",
      "outputs": [
        {
          "internalType": "uint256",
          "name": "",
          "type": "uint256"
        }
      ],
      "stateMutability": "view",
      "type": "function"
    },
    {
      "inputs": [
        {
          "internalType": "address",
          "name": "from",
          "type": "address"
        },
        {
          "internalType": "address",
          "name": "to",
          "type": "address"
        },
        {
          "internalType": "uint256",
          "name": "tokenId",
          "type": "uint256"
        }
      ],
      "name": "transferFrom",
      "outputs": [],
      "stateMutability": "nonpayable",
      "type": "function"
    },
    {
      "inputs": [
        {
          "internalType": "address",
          "name": "newOwner",
          "type": "address"
        }
      ],
      "name": "transferOwnership",
      "outputs": [],
      "stateMutability": "nonpayable",
      "type": "function"
    }
  ],
  "bytecode": "0x608060405234801561000f575f5ffd5b50336040518060400160405280600e81526020016d20bab930b1b6329029b2b739b7b960911b815250604051806040016040528060048152602001634155524160e01b815250815f90816100639190610198565b5060016100708282610198565b5050506001600160a01b0381166100a057604051631e4fbdf760e01b81525f600482015260240160405180910390fd5b6100a9816100af565b50610252565b600780546001600160a01b038381166001600160a01b0319831681179093556040519116919082907f8be0079c531659141344cd1fd0a4f28419497f9722a3daafe3b4186f6b6457e0905f90a35050565b634e487b7160e01b5f52604160045260245ffd5b600181811c9082168061012857607f821691505b60208210810361014657634e487b7160e01b5f52602260045260245ffd5b50919050565b601f82111561019357805f5260205f20601f840160051c810160208510156101715750805b601f840160051c820191505b81811015610190575f815560010161017d565b50505b505050565b81516001600160401b038111156101b1576101b1610100565b6101c5816101bf8454610114565b8461014c565b6020601f8211600181146101f7575f83156101e05750848201515b5f19600385901b1c1916600184901b178455610190565b5f84815260208120601f198516915b828110156102265787850151825560209485019460019092019101610206565b508482101561024357868401515f19600387901b60f8161c191681555b50505050600190811b01905550565b6119678061025f5f395ff3fe608060405234801561000f575f5ffd5b506004361061013d575f3560e01c8063822b2c4c116100b4578063b88d4fde11610079578063b88d4fde1461029b578063c87b56dd146102ae578063e985e9c5146102c1578063ed044aa3146102d4578063f2fde38b146102f4578063fc39c02c14610307575f5ffd5b8063822b2c4c146102375780638da5cb5b1461024a57806395d89b411461025b578063a22cb46514610263578063ab562a1d14610276575f5ffd5b806323b872dd1161010557806323b872dd146101d057806342842e0e146101e357806355f804b3146101f65780636352211e1461020957806370a082311461021c578063715018a61461022f575f5ffd5b806301ffc9a71461014157806306fdde0314610169578063081812fc1461017e578063095ea7b3146101a957806318160ddd146101be575b5f5ffd5b61015461014f366004611354565b61031a565b60405190151581526020015b60405180910390f35b61017161032a565b604051610160919061139d565b61019161018c3660046113af565b6103b9565b6040516001600160a01b039091168152602001610160565b6101bc6101b73660046113e1565b6103e0565b005b6008545b604051908152602001610160565b6101bc6101de366004611409565b6103ef565b6101bc6101f1366004611409565b61047d565b6101bc6102043660046114ec565b61049c565b6101916102173660046113af565b6104b0565b6101c261022a36600461151e565b6104ba565b6101bc6104ff565b6101bc610245366004611537565b610512565b6007546001600160a01b0316610191565b6101716105ea565b6101bc610271366004611557565b6105f9565b6102896102843660046113af565b610604565b60405161016096959493929190611590565b6101bc6102a93660046115da565b610743565b6101716102bc3660046113af565b61075b565b6101546102cf366004611651565b610766565b6102e76102e23660046113af565b610793565b6040516101609190611682565b6101bc61030236600461151e565b61092e565b6101c26103153660046116ef565b61096b565b5f61032482610a1d565b92915050565b60605f805461033890611754565b80601f016020809104026020016040519081016040528092919081815260200182805461036490611754565b80156103af5780601f10610386576101008083540402835291602001916103af565b820191905f5260205f20905b81548152906001019060200180831161039257829003601f168201915b5050505050905090565b5f6103c382610a41565b505f828152600460205260409020546001600160a01b0316610324565b6103eb828233610a79565b5050565b6001600160a01b03821661041d57604051633250574960e11b81525f60048201526024015b60405180910390fd5b5f610429838333610a86565b9050836001600160a01b0316816001600160a01b031614610477576040516364283d7b60e01b81526001600160a01b0380861660048301526024820184905282166044820152606401610414565b50505050565b61049783838360405180602001604052805f815250610743565b505050565b6104a4610b78565b60096103eb82826117d0565b5f61032482610a41565b5f6001600160a01b0382166104e4576040516322718ad960e21b81525f6004820152602401610414565b506001600160a01b03165f9081526003602052604090205490565b610507610b78565b6105105f610ba5565b565b5f828152600260205260409020546001600160a01b031633146105915760405162461bcd60e51b815260206004820152603160248201527f4f6e6c7920746865206f776e6572206f66207468652073656e736f72204e46546044820152701031b0b71039bab136b4ba103230ba309760791b6064820152608401610414565b5f828152600a6020908152604091829020600281018490554260039091015581518481529081018390527f8e02165c32e3fe774a93d7f62c2ba5fb32479a920c28e338092644bfbafd6093910160405180910390a15050565b60606001805461033890611754565b6103eb338383610bf6565b600a6020525f908152604090208054819061061e90611754565b80601f016020809104026020016040519081016040528092919081815260200182805461064a90611754565b80156106955780601f1061066c57610100808354040283529160200191610695565b820191905f5260205f20905b81548152906001019060200180831161067857829003601f168201915b5050505050908060010180546106aa90611754565b80601f01602080910402602001604051908101604052809291908181526020018280546106d690611754565b80156107215780601f106106f857610100808354040283529160200191610721565b820191905f5260205f20905b81548152906001019060200180831161070457829003601f168201915b5050505050908060020154908060030154908060040154908060050154905086565b61074e8484846103ef565b6104773385858585610c94565b606061032482610dbc565b6001600160a01b039182165f90815260056020908152604080832093909416825291909152205460ff1690565b6107c86040518060c0016040528060608152602001606081526020015f81526020015f81526020015f81526020015f81525090565b5f828152600a602052604090819020815160c081019092528054829082906107ef90611754565b80601f016020809104026020016040519081016040528092919081815260200182805461081b90611754565b80156108665780601f1061083d57610100808354040283529160200191610866565b820191905f5260205f20905b81548152906001019060200180831161084957829003601f168201915b5050505050815260200160018201805461087f90611754565b80601f01602080910402602001604051908101604052809291908181526020018280546108ab90611754565b80156108f65780601f106108cd576101008083540402835291602001916108f6565b820191905f5260205f20905b8154815290600101906020018083116108d957829003601f168201915b505050505081526020016002820154815260200160038201548152602001600482015481526020016005820154815250509050919050565b610936610b78565b6001600160a01b03811661095f57604051631e4fbdf760e01b81525f6004820152602401610414565b61096881610ba5565b50565b600880545f9181908361097d8361188b565b919050555061098c3382610ebb565b6040805160c08101825285815260208082018690525f82840181905242606084015260646080840181905260a0840152848152600a90915291909120815181906109d690826117d0565b50602082015160018201906109eb90826117d0565b5060408201516002820155606082015160038201556080820151600482015560a0909101516005909101559392505050565b5f6001600160e01b03198216632483248360e11b1480610324575061032482610ed4565b5f818152600260205260408120546001600160a01b03168061032457604051637e27328960e01b815260048101849052602401610414565b6104978383836001610f23565b5f828152600260205260408120546001600160a01b0390811690831615610ab257610ab2818486611027565b6001600160a01b03811615610aec57610acd5f855f5f610f23565b6001600160a01b0381165f90815260036020526040902080545f190190555b6001600160a01b03851615610b1a576001600160a01b0385165f908152600360205260409020805460010190555b5f8481526002602052604080822080546001600160a01b0319166001600160a01b0389811691821790925591518793918516917fddf252ad1be2c89b69c2b068fc378daa952ba7f163c4a11628f55a4df523b3ef91a4949350505050565b6007546001600160a01b031633146105105760405163118cdaa760e01b8152336004820152602401610414565b600780546001600160a01b038381166001600160a01b0319831681179093556040519116919082907f8be0079c531659141344cd1fd0a4f28419497f9722a3daafe3b4186f6b6457e0905f90a35050565b6001600160a01b038216610c2857604051630b61174360e31b81526001600160a01b0383166004820152602401610414565b6001600160a01b038381165f81815260056020908152604080832094871680845294825291829020805460ff191686151590811790915591519182527f17307eab39ab6107e8899845ad3d59bd9653f200f220920489ca2b5937696c31910160405180910390a3505050565b6001600160a01b0383163b15610db557604051630a85bd0160e11b81526001600160a01b0384169063150b7a0290610cd69088908890879087906004016118af565b6020604051808303815f875af1925050508015610d10575060408051601f3d908101601f19168201909252610d0d918101906118eb565b60015b610d77573d808015610d3d576040519150601f19603f3d011682016040523d82523d5f602084013e610d42565b606091505b5080515f03610d6f57604051633250574960e11b81526001600160a01b0385166004820152602401610414565b805160208201fd5b6001600160e01b03198116630a85bd0160e11b14610db357604051633250574960e11b81526001600160a01b0385166004820152602401610414565b505b5050505050565b6060610dc782610a41565b505f8281526006602052604081208054610de090611754565b80601f0160208091040260200160405190810160405280929190818152602001828054610e0c90611754565b8015610e575780601f10610e2e57610100808354040283529160200191610e57565b820191905f5260205f20905b815481529060010190602001808311610e3a57829003601f168201915b505050505090505f610e6761108b565b905080515f03610e78575092915050565b815115610eaa578082604051602001610e9292919061191d565b60405160208183030381529060405292505050919050565b610eb38461109a565b949350505050565b6103eb828260405180602001604052805f8152506110ff565b5f6001600160e01b031982166380ac58cd60e01b1480610f0457506001600160e01b03198216635b5e139f60e01b145b8061032457506301ffc9a760e01b6001600160e01b0319831614610324565b8080610f3757506001600160a01b03821615155b15610ff8575f610f4684610a41565b90506001600160a01b03831615801590610f725750826001600160a01b0316816001600160a01b031614155b8015610f855750610f838184610766565b155b15610fae5760405163a9fbf51f60e01b81526001600160a01b0384166004820152602401610414565b8115610ff65783856001600160a01b0316826001600160a01b03167f8c5be1e5ebec7d5bd14f71427d1e84f3dd0314c0f7b2291e5b200ac8c7c3b92560405160405180910390a45b505b50505f90815260046020526040902080546001600160a01b0319166001600160a01b0392909216919091179055565b611032838383611116565b610497576001600160a01b03831661106057604051637e27328960e01b815260048101829052602401610414565b60405163177e802f60e01b81526001600160a01b038316600482015260248101829052604401610414565b60606009805461033890611754565b60606110a582610a41565b505f6110af61108b565b90505f8151116110cd5760405180602001604052805f8152506110f8565b806110d784611177565b6040516020016110e892919061191d565b6040516020818303038152906040525b9392505050565b6111098383611207565b610497335f858585610c94565b5f6001600160a01b03831615801590610eb35750826001600160a01b0316846001600160a01b0316148061114f575061114f8484610766565b80610eb35750505f908152600460205260409020546001600160a01b03908116911614919050565b60605f61118383611268565b60010190505f8167ffffffffffffffff8111156111a2576111a2611443565b6040519080825280601f01601f1916602001820160405280156111cc576020820181803683370190505b5090508181016020015b5f19016f181899199a1a9b1b9c1cb0b131b232b360811b600a86061a8153600a85049450846111d657509392505050565b6001600160a01b03821661123057604051633250574960e11b81525f6004820152602401610414565b5f61123c83835f610a86565b90506001600160a01b03811615610497576040516339e3563760e11b81525f6004820152602401610414565b5f8072184f03e93ff9f4daa797ed6e38ed64bf6a1f0160401b83106112a65772184f03e93ff9f4daa797ed6e38ed64bf6a1f0160401b830492506040015b6d04ee2d6d415b85acef810000000083106112d2576d04ee2d6d415b85acef8100000000830492506020015b662386f26fc1000083106112f057662386f26fc10000830492506010015b6305f5e1008310611308576305f5e100830492506008015b612710831061131c57612710830492506004015b6064831061132e576064830492506002015b600a83106103245760010192915050565b6001600160e01b031981168114610968575f5ffd5b5f60208284031215611364575f5ffd5b81356110f88161133f565b5f81518084528060208401602086015e5f602082860101526020601f19601f83011685010191505092915050565b602081525f6110f8602083018461136f565b5f602082840312156113bf575f5ffd5b5035919050565b80356001600160a01b03811681146113dc575f5ffd5b919050565b5f5f604083850312156113f2575f5ffd5b6113fb836113c6565b946020939093013593505050565b5f5f5f6060848603121561141b575f5ffd5b611424846113c6565b9250611432602085016113c6565b929592945050506040919091013590565b634e487b7160e01b5f52604160045260245ffd5b5f5f67ffffffffffffffff84111561147157611471611443565b50604051601f19601f85018116603f0116810181811067ffffffffffffffff821117156114a0576114a0611443565b6040528381529050808284018510156114b7575f5ffd5b838360208301375f60208583010152509392505050565b5f82601f8301126114dd575f5ffd5b6110f883833560208501611457565b5f602082840312156114fc575f5ffd5b813567ffffffffffffffff811115611512575f5ffd5b610eb3848285016114ce565b5f6020828403121561152e575f5ffd5b6110f8826113c6565b5f5f60408385031215611548575f5ffd5b50508035926020909101359150565b5f5f60408385031215611568575f5ffd5b611571836113c6565b915060208301358015158114611585575f5ffd5b809150509250929050565b60c081525f6115a260c083018961136f565b82810360208401526115b4818961136f565b9150508560408301528460608301528360808301528260a0830152979650505050505050565b5f5f5f5f608085870312156115ed575f5ffd5b6115f6856113c6565b9350611604602086016113c6565b925060408501359150606085013567ffffffffffffffff811115611626575f5ffd5b8501601f81018713611636575f5ffd5b61164587823560208401611457565b91505092959194509250565b5f5f60408385031215611662575f5ffd5b61166b836113c6565b9150611679602084016113c6565b90509250929050565b602081525f825160c0602084015261169d60e084018261136f565b90506020840151601f198483030160408501526116ba828261136f565b9150506040840151606084015260608401516080840152608084015160a084015260a084015160c08401528091505092915050565b5f5f60408385031215611700575f5ffd5b823567ffffffffffffffff811115611716575f5ffd5b611722858286016114ce565b925050602083013567ffffffffffffffff81111561173e575f5ffd5b61174a858286016114ce565b9150509250929050565b600181811c9082168061176857607f821691505b60208210810361178657634e487b7160e01b5f52602260045260245ffd5b50919050565b601f82111561049757805f5260205f20601f840160051c810160208510156117b15750805b601f840160051c820191505b81811015610db5575f81556001016117bd565b815167ffffffffffffffff8111156117ea576117ea611443565b6117fe816117f88454611754565b8461178c565b6020601f821160018114611830575f83156118195750848201515b5f19600385901b1c1916600184901b178455610db5565b5f84815260208120601f198516915b8281101561185f578785015182556020948501946001909201910161183f565b508482101561187c57868401515f19600387901b60f8161c191681555b50505050600190811b01905550565b5f600182016118a857634e487b7160e01b5f52601160045260245ffd5b5060010190565b6001600160a01b03858116825284166020820152604081018390526080606082018190525f906118e19083018461136f565b9695505050505050565b5f602082840312156118fb575f5ffd5b81516110f88161133f565b5f81518060208401855e5f93019283525090919050565b5f610eb361192b8386611906565b8461190656fea2646970667358221220c6593cc3b938e306ef366d163f157ca44b0926cb52e293b6a6138b91e83c4b3b64736f6c634300081c0033",
  "linkReferences": {},
  "deployedLinkReferences": {},
  "immutableReferences": {},
  "inputSourceName": "project/contracts/Auracle.sol",
  "buildInfoId": "solc-0_8_28-632bbaa0fe6d32bd29dd101a7f2be9c4acc1a9bb"
}